:020000040800F2
:1000000000040020E1030008B1040008B104000866
:10001000B1040008B1040008B1040008B1040008EC
:10002000B1040008B1040008B1040008E1040008AC
:10003000B1040008B1040008B1040008B1050008CB
:10004000B1040008B1040008B1040008B1040008BC
:10005000B1040008B1040008B1040008B1040008AC
:10006000B1040008B1040008B1040008A11300089D
:10007000D1130008011400083114000861140008AD
:1000800091140008C114000821190008A1190008E2
:10009000F1190008711A0008811A0008B10400085B
:1000A000B1040008B1040008B1040008B10400085C
:1000B000B1040008B1040008211B0008B1040008C5
:1000C000B1040008B1040008B1040008B10400083C
:1000D000B1040008B1040008B1040008B10400082C
:1000E000B1040008B1040008B1040008B10400081C
:1000F000B1040008B1040008B1040008F1140008BC
:10010000B1040008B1040008B1040008B1040008FB
:10011000B1040008B1040008B1040008B1040008EB
:10012000211500085115000881150008B1150008B7
:10013000E1150008B1040008B1040008B10400088A
:10014000B1040008B1040008B1040008012300084C
:10015000111600084116000871160008B1040008C5
:10016000B1040008B1040008B1040008B10400089B
:10017000B1040008B1040008B1040008B10400088B
:08018000B1040008B1040008FD
:100190002DE9F0414EF64F40374D0023C4F6C460C0
:1001A0001A249AB2A0FB0261C90804FB1122613231
:1001B000EA540133B3F5807FF3D14FF44065C4F2C4
:1001C000020500F06DFD00F063FA6B692B4C2C49C1
:1001D00020682C4E2C4F83F400536B616B6983F4C1
:1001E00080536B616B6983F480436B616B6983F44B
:1001F00000436B6100F00CFE22683378D26B916B88
:1002000041F4002191634FF00108642053B300F0E2
:100210007FFC6B69206887F8008083F4004E1B4ADE
:10022000C5F814E04023022100F02AFE202383F3C6
:1002300011880221206800F043FE002383F3118817
:10024000012120680C4A4FF4807300F029FE20231E
:1002500083F311880121206800F04AFE002383F314
:10026000118833704FF47A7000F052FC33786420B8
:10027000002BCCD1F6E700BF5C0C0020000800206A
:10028000D02D0008590C0020580C00205C0D0020D7
:100290000F2AF0B498BF034631D941EA00039B0707
:1002A00037D10C460346154626681E6066685E60B8
:1002B000A6689E60E668103DDE60103410330F2D96
:1002C000F2D8A2F1100424F00F0402F00F0210344F
:1002D000032A00EB0403214411D90E1F1D461446C6
:1002E00056F8047F043C032C45F8047BF8D8141F0F
:1002F00024F00304043402F0030209191B1932B17B
:10030000013911F8014F013A03F8014BF9D1F0BC62
:1003100070470346F4E700BF000000000000000043
:1003200010F0030F70B4034642D0002A3ED0013AC9
:10033000CDB203E0541E002A38D0224603F8015BF8
:1003400013F0030F1C46F5D1032A29D9CDB20F2A89
:1003500045EA052545EA054584BF2346164611D9D9
:10036000103E1D605D609D60DD6010330F2EF7D87C
:10037000A2F1100323F00F0302F00F021033032A3F
:100380001C440DD926461346043B032B46F8045B58
:10039000FAD8131F23F00303043302F00302E41816
:1003A000C9B21AB1013A04F8011BFBD170BC704705
:1003B0000446C9E700000000000000000000000043
:1003C000704700BFAFF30080AFF30080AFF3008051
:1003D000FEE700BFAFF30080AFF30080AFF3008013
:1003E00072B6244C84F30988022383F31488BFF384
:1003F0006F8F02F03DFA204B204A934205D24FF016
:10040000553143F8041B9342FBD31D4BA34205D245
:100410004FF0553243F8042BA342FBD3194B1A4833
:10042000834206D2194A52F8041F43F8041B834240
:10043000F9D3174B174A934204D2002143F8041B07
:100440009342FBD3144D154CFFF7BAFFAC4204D2D4
:1004500054F8043B9847AC42FAD3114D114CFFF7C6
:1004600097FEAC4204D254F8043B9847AC42FAD30E
:10047000FFF7AEBF000800200000002000040020AD
:10048000000400200008002004080020542E00086A
:1004900008080020AC0D0020880100088801000831
:1004A0008801000888010008AFF30080AFF30080E6
:1004B000FEE700BFAFF30080AFF30080AFF3008032
:1004C00072B6FEE7AFF30080AFF30080AFF30080B9
:1004D00000F096FA00DF00BFAFF30080AFF30080BA
:1004E000EFF30983203383F30988002383F3118812
:1004F000704700BFAFF30080AFF30080AFF3008020
:1005000008B54FF46D43CEF200034FF44072C0F2D1
:10051000FA520021996007201021DA6000F090F86B
:100520000A204FF4007100F08BF80B208021BDE809
:10053000084000F085B800BFAFF30080AFF3008043
:10054000202383F311884FF46D43CEF200035B68E0
:1005500013F4006319D0EFF30983A3F1200282F3AF
:10056000098810494FF080708A6943F8040CD07FE5
:1005700009689268896858B1914294BF00220122AB
:1005800062B1094A43F8082C704783F31188704719
:10059000914234BF00220122002AF2D1034A43F8DB
:1005A000082C704720090020D1040008D40400085A
:1005B00008B5202383F3118800F0A2F8002383F309
:1005C0001188BDE80840FFF7BBBF00BFAFF3008054
:1005D0002DE9F04FC1F80CD0D0F80CD0BDE8F08F69
:1005E000002383F311882846A04700F0C1FA704722
:1005F000F0B44FF461438408CEF20003C03400F03D
:10060000030553F82470ED00FF264209AE4027EAA7
:10061000060611FA05F500F01F0002F1600701213E
:1006200011FA00F02E4343F8246043F8270043F802
:100630002200F0BC704700BFAFF30080AFF3008032
:1006400082084FF46D43CEF20003063200F003003F
:1006500030B4C00053F82250FF24844025EA04043B
:1006600011FA00F0044343F8224030BC704700BF49
:10067000024B034A9B699A61FEE700BF20090020F4
:10068000602A0008AFF30080AFF30080AFF3008072
:1006900010B582B0FFF734FF00F0DAF800F060F830
:1006A00000F0B6FA00F0ECFA40F6C8004021C2F2C1
:1006B000000000F0B5F940F62011C2F2000101225D
:1006C00088610277002383F3118862B689691C462A
:1006D00042F66823C0F600038B6140F6080040F242
:1006E0007163C021C0F60003C2F20000009400F064
:1006F000F7F902B010BD00BFAFF30080AFF3008088
:1007000038B5134B9B69DA7F0AB1013ADA771A6A76
:10071000104C01321A62E36821680133A142E360A0
:1007200014D08D68013D8D6085B90B68CA685C6026
:100730002360CD60002383F311880869904720234C
:1007400083F3118821688B68002BEED038BD00BF81
:100750002009002010090020AFF30080AFF30080D3
:1007600040F61013C2F200034FF0FF329A600022ED
:100770005B601B60DA607047AFF30080AFF300800E
:1007800070B40D4D03612C68C260A668B14204D9F3
:100790002468891BA6688E42FAD363688160AC42E4
:1007A00043600460186018BFA36860601CBFC1EBA1
:1007B0000301A16070BC704710090020AFF30080F6
:1007C0000368074A93421FBF996882688A189A6033
:1007D0004268136003685A600023C360704700BF1B
:1007E00010090020AFF30080AFF30080AFF300806A
:1007F000202383F31188037F0D2B11D8DFE803F04A
:1008000020101007100B101010101010100B436A5E
:100810009A6801329A6090E80C001A60026853608E
:100820004FF0FF3242628168074B002202771B685B
:100830009A688A42FBD25A6803604260106058602E
:10084000002383F31188704720090020AFF3008054
:1008500040F62013C2F2000300225B601B609A6026
:100860005B611B61704700BFAFF30080AFF3008096
:1008700000228168054B02771B689A688A42FBD286
:100880005A68036042601060586070472009002079
:1008900040F62013C2F2000310B499691A68087771
:1008A00014201468C87701201077104663601C601C
:1008B0009A6110BCFFF78CBEAFF30080AFF30080ED
:1008C00030B54B1C87B0054611D00B4C0B4AA369C1
:1008D00001A8FFF755FF2846FFF7DAFF049B13B185
:1008E00001A8FFF76DFFA369586A07B030BDFFF795
:1008F000CFFF014CF7E700BF20090020F1070008F7
:1009000030B4144C8568A2690346906859628542E8
:100910000CD800221A772468A2689542FBD9626835
:100920001C605A601360636030BC7047002111770F
:10093000214609688D68A842FBD94868116050605B
:100940004A6001210260197718461146A36130BC44
:10095000FFF73EBE20090020AFF30080AFF3008018
:100960000E4B18689969026830B453608C681A603D
:10097000986114230125CB77002305770B77034675
:1009800000E01B689A68A242FBD25A680B604A607A
:100990001160596030BCFFF71BBE00BF200900206A
:1009A0000D4B18689969026830B453608C681A60FE
:1009B00001259861002305770B77034600E01B684B
:1009C0009A68A242FBD85A680B604A60116059606D
:1009D00030BCFFF7FDBD00BF20090020AFF3008051
:1009E000044B1A689B6992689B689A4200D87047CA
:1009F000FFF7D6BF20090020AFF30080AFF30080DF
:100A0000034B9B69DB7F0BB1FFF7CABFFFF7A8BFA2
:100A100020090020AFF30080AFF30080AFF3008027
:100A2000F0B440F62014C2F20004002265690164AB
:100A3000046100F12C06816000F1280745614FF048
:100A4000020C60610121142480F81CC04277C47735
:100A5000C263826302628177826128618762066372
:100A6000C662F0BC704700BFAFF30080AFF30080F8
:100A70002DE9F00340F62015C2F20005A1F1240C87
:100A800000EB0C076969C76040F80C30069B7B607F
:100A900040F2E153C0F600033B62022303771423C4
:100AA0000026904600F1280900F12C02C3770123AB
:100AB0000561C0F808804161044668614677C0F866
:100AC0004080C66386630662837786610861C0F8EA
:100AD00028900263C262BDE8F0037047AFF3008064
:100AE00010B51C4682B0202383F311882346049C52
:100AF0000094FFF7BDFF00210446FFF701FF00232C
:100B000083F31188204602B010BD00BFAFF3008010
:100B100008B50146202383F311880620FFF7D0FE95
:100B2000002383F3118808BDAFF30080AFF300808A
:100B300038B50E4B9C692546606255F8280FA842CF
:100B400006D00368A362FFF793FEA06AA842F8D11B
:100B5000637F9B0701BF226963691A61226908BF2D
:100B600053610E20BDE83840FFF792BE20090020F7
:100B7000202383F31188FFF7DBBF00BFAFF30080B2
:100B80004060006081607047AFF30080AFF3008089
:100B900082680132002A0346826000DD70470268E5
:100BA000116801604B60104600235362FFF760BE7E
:100BB0000023406000608360704700BFAFF3008097
:100BC00008B5826B037F0A43082B82630BD0092B85
:100BD00000D008BD436A1A409342FAD1FFF748FE9D
:100BE0000023436208BD436A1A42F7D108BD00BF23
:100BF00070B50468A04205460E4607D0A16860683B
:100C00003143FFF7DDFF2468A542F7D170BD00BF77
:100C100040F6401240F63C134CF200010648C2F286
:100C20000002C2F20003C2F2010120F0070021F02D
:100C30000701106019607047B30D0020AFF300800A
:100C4000202383F31188094B09491A680968073082
:100C500020F00700891A88429ABF101818600022F5
:100C6000002383F311881046704700BF400900201D
:100C70003C090020AFF30080AFF30080AFF30080A9
:100C800040F64813C2F2000340F641410022C0F68C
:100C9000000103F1100019609A60DA60FFF788BF65
:100CA00008B500F025FD42F6B030C0F6000000F0B7
:100CB000A7FF00F035F800F04BF800F079F800F0ED
:100CC00087F800F095F8BDE8084001F0D9BD00BFF5
:100CD0004FF48053CEF2000310B41A465B68C0187C
:100CE000834251680AD2884294BF002401248B4277
:100CF00088BF0024002CF3D110BC70478B428CBFFE
:100D000000240124884288BF44F00104002CE7D16C
:100D1000F2E700BFAFF30080AFF30080AFF30080D5
:100D200000F0BEBDAFF30080AFF30080AFF30080F2
:100D300000230122027043608360C360036143614A
:100D40001830FFF735BF00BFAFF30080AFF300806E
:100D500000F0D6BEAFF30080AFF30080AFF30080A9
:100D600070B5044600250123237000F108002946D0
:100D70006560FFF705FF04F114002946FFF700FF47
:100D800004F1200604F1240004F1280104F13002EA
:100D900004F1340326626062A162E5622263636348
:100DA00070BD00BFAFF30080AFF30080AFF30080F1
:100DB00000F0EEBEAFF30080AFF30080AFF3008031
:100DC0000123037000234360704700BFAFF300802E
:100DD00000F0EEBEAFF30080AFF30080AFF3008011
:100DE000002301220270436083600C30FFF7E0BEF5
:100DF00001F006BBAFF30080AFF30080AFF30080DB
:100E0000002301220270436083608381C3817047A5
:100E100038B50446202383F311880025416005611D
:100E200045618561C56101F003FB022323702B46F8
:100E300083F3118838BD00BFAFF30080AFF30080AB
:100E400070B50646506914460D4618B100211022AF
:100E5000FFF766FAA06918B100211022FFF760FAC7
:100E60002B1D3046294646F82340BDE8704001F06E
:100E7000BFBB00BFAFF30080AFF30080AFF30080D3
:100E800030B40C1D002550F82440A4692560E260B0
:100E90006360A56030BC01F073BC00BFAFF300809D
:100EA00030B40C1D002550F8244064692560E260D0
:100EB0006360A56030BC01F07BBC00BFAFF3008075
:100EC00070B5C48954FA01F313F001060D4601D040
:100ED000012070BD012313FA01F52C43C48101F0F8
:100EE00087FC304670BD00BFAFF30080AFF30080D9
:100EF00070B5848954FA01F313F001060D4601D050
:100F0000012070BD012313FA01F52C43848101F007
:100F100077FC304670BD00BFAFF30080AFF30080B8
:100F200010B40346002202240470028783F83A209A
:100F300080F83B208281C281026142618261C2618C
:100F400083F8202010BC01F0E3BA00BFAFF30080AB
:100F5000F8B50023044680F8203000F1300201F09B
:100F600007FC63689B683BB32046984720B3A56A9B
:100F700094F8302094F8371094F8363043EA01237F
:100F8000AB423CBFA3621D4612062B4663D4002D24
:100F90004ED1042284F82020204629462A46FFF715
:100FA0007FFF202383F3118820462946FFF7A0FF07
:100FB0002B4683F31188F8BD94F8302012F06006B8
:100FC00014D00021204601F03BFC2046002101F016
:100FD0002FFC63681B6813B1204605219847052341
:100FE000A56A94F8302084F82030C3E794F8317073
:100FF00002F07F0343EA0727B7F5407F00F0F48053
:1010000050DDB7F5C06F00F0868066DDB7F5106F74
:1010100000F0AF8040F602439F4275D0B7F5006FF5
:10102000CFD1012504F13B036362A562E662A1E72B
:10103000032284F8202020460021626AFFF720FF67
:10104000202383F3118800212046FFF739FF002376
:1010500083F31188F8BD95B1012284F82020204641
:101060000021626AFFF71CFF202383F3118800210F
:101070002046FFF73DFF002383F31188F8BD0222CD
:1010800084F82020204629462A46FFF7F9FE20232F
:1010900083F3118820462946FFF712FF2B4683F37E
:1010A0001188F8BD022F76D029DDB7F5807F4BD0AF
:1010B000B7F5817F85D194F83230002B81D194F837
:1010C000343013F00F0115D01B06204600F1BB8011
:1010D00001F0BEFB94F830200CE040F202339F4256
:1010E00070D0B7F5A06F7FF46CAF238EB3F5A06F0F
:1010F00000F0978000256562A562E5623AE7002F5F
:1011000030D0012F7FF45DAF544B02256362002382
:10111000A562E3622EE7626894F8357094F8343083
:10112000556894F8331094F83220204643EA072398
:10113000A84700283FF445AF4368056894F830207D
:101140006362A562E66215E794F83230012B7FF402
:1011500038AF238F666223F002032387A662E6621C
:10116000354607E7022504F138036362A562E762AA
:1011700000E794F8323084F83B30002B42D103234F
:10118000237063681B68002BB4D020460221984767
:1011900094F83020AEE794F8341011F0800F204618
:1011A00001F00F0131D101F0C3FA012831D002283A
:1011B0007FF407AF2A4BA0626362E66294F83020A6
:1011C0000546D7E694F83230002B7FF4FAAE94F857
:1011D000343013F00F018DD01D06204638D401F0B5
:1011E00027FB94F8302085E794F83230012B7FF408
:1011F000E8AE238F666243F002032387A662E662AD
:101200003546B7E604232370BBE701F0A1FA0128B5
:10121000CDD1144BA7626362E66294F830203D465C
:10122000A8E694F83230204684F83A3001F0D0F93C
:1012300063681B6813B1204601219847032394F883
:101240003020237056E701F00BFB94F8302051E773
:1012500001F0F6FA94F830204CE700BF702A00083D
:10126000802A0008902A0008AFF30080AFF30080C6
:1012700038B590F82030012B044619D0042B10D03B
:10128000002101F0DDFA2046002101F0D1FA636867
:101290001B6813B1204605219847052384F82030A8
:1012A00038BDC36A03B19847002384F8203038BDA5
:1012B00090F8371090F83620836A42EA01229A4269
:1012C00006D90269128AB3FBF2F502FB15359DB10E
:1012D000002102220B4684F8202020460A46FFF710
:1012E000CFFD202383F3118800212046FFF7E8FD7E
:1012F000002383F3118838BD2B4629462A46FFF781
:10130000CFFD202383F3118820462946FFF7F0FD07
:101310002B4683F3118838BDAFF30080AFF3008014
:1013200090F82030022B10B5044626D0032B11D0A4
:101330000021204601F084FA2046002101F078FACD
:1013400063681B6813B1204605219847052384F87C
:10135000203010BD002104220B4680F820200A46D0
:10136000FFF79EFD202383F3118800212046FFF71D
:10137000BFFD002383F3118810BD03699B699B683F
:10138000002BD5D1C36A03B19847002384F82030DD
:1013900010BD00BFAFF30080AFF30080AFF300805B
:1013A00008484FF4C042C4F202020368116810B545
:1013B0003D24946013B1406821409847BDE8104037
:1013C000FFF7BEB868090020AFF30080AFF30080DC
:1013D0000A484FF4C042C4F202028368116810B593
:1013E0004FF47464946023B18909C06801F03D0131
:1013F0009847BDE81040FFF7A3B800BF6809002078
:101400000A484FF4C042C4F202020369116810B5E1
:101410004FF47414946023B1090C406901F03D014C
:101420009847BDE81040FFF78BB800BF680900205F
:101430000A484FF4C042C4F202028369116810B531
:101440004FF07464946023B1890DC06901F03D01CF
:101450009847BDE81040FFF773B800BF6809002047
:1014600008484FF4C042C4F20202036A516810B542
:101470003D24D46013B1406A21409847BDE8104034
:10148000FFF75EB868090020AFF30080AFF300807B
:101490000A484FF4C042C4F20202836A516810B590
:1014A0004FF47464D46023B18909C06A01F03D012E
:1014B0009847BDE81040FFF743B800BF6809002017
:1014C0000A484FF4C042C4F20202036B516810B5DF
:1014D0004FF47414D46023B1090C406B01F03D014A
:1014E0009847BDE81040FFF72BB800BF68090020FF
:1014F0000A484FF4C042C4F20202836B516810B52F
:101500004FF07464D46023B1890DC06B01F03D01CC
:101510009847BDE81040FFF713B800BF68090020E6
:1015200008484FF4C842C4F20202036C116810B5B7
:101530003D24946013B1406C21409847BDE81040B1
:10154000FEF7FEBF68090020AFF30080AFF3008014
:101550000A484FF4C842C4F20202836C116810B505
:101560004FF47464946023B18909C06C01F03D01AB
:101570009847BDE81040FEF7E3BF00BF68090020B0
:101580000A484FF4C842C4F20202036D116810B554
:101590004FF47414946023B1090C406D01F03D01C7
:1015A0009847BDE81040FEF7CBBF00BF6809002098
:1015B0000A484FF4C842C4F20202836D116810B5A4
:1015C0004FF07464946023B1890DC06D01F03D014A
:1015D0009847BDE81040FEF7B3BF00BF6809002080
:1015E00008484FF4C842C4F20202036E516810B5B5
:1015F0003D24D46013B1406E21409847BDE81040AF
:10160000FEF79EBF68090020AFF30080AFF30080B3
:101610000A484FF4C842C4F20202836E516810B502
:101620004FF47464D46023B18909C06E01F03D01A8
:101630009847BDE81040FEF783BF00BF680900204F
:101640000A484FF4C842C4F20202036F516810B551
:101650004FF47414D46023B1090C406F01F03D01C4
:101660009847BDE81040FEF76BBF00BF6809002037
:101670000A484FF4C842C4F20202836F516810B5A1
:101680004FF07464D46023B1890DC06F01F03D0147
:101690009847BDE81040FEF753BF00BF680900201F
:1016A0000F4B30B400220F4D0F4C1A6011461346F9
:1016B000E8580C330160A1500832C02BF8D14FF428
:1016C000C0414FF4C842C4F20201C4F202024FF01A
:1016D000FF338B60CB609360D36030BC704700BF3A
:1016E000E8090020A02A000868090020AFF3008064
:1016F0004FF46053C4F202030022196941F0010162
:1017000030B419611A61596941F0010159615A6196
:10171000996941F0010199619A61196A19621A6225
:101720005D6A4EF21001CEF2000149F23F04C0F2B0
:1017300002044EF6F05045F001055D62CEF2000065
:101740005A624C6007248A600C60C4684FF4805170
:10175000CEF2000144F08074C460086840F00100DB
:101760000860186C4FF4E041C4F2000140F0805072
:101770001864086840F480700860196F01F44071C3
:10178000B1F5007F1EBF4FF4803119671A674FF41F
:101790006053C4F202031A6F120407D41A6F42F4A2
:1017A00000721A671A6F42F400421A6730BCFFF7E2
:1017B00077BF00BFAFF30080AFF30080AFF30080CE
:1017C0004FF46052C4F202024FF4E043C4F200034B
:1017D0004FF0805111644FF480411A4619605368EC
:1017E0005904FCD54FF46053C4F2020319461A6839
:1017F00042F001021A600A684FF460539207C4F283
:101800000203F8D51A6842F480321A6019460A6851
:101810004FF460539003C4F20203F8D55A6F42F0BC
:1018200001025A6719464A6F4FF460539207C4F297
:101830000203F8D545F20842C0F240725A601A68B5
:1018400042F080721A6019460A684FF460539001A2
:10185000C4F20203F8D598684FF414424FF4705163
:10186000C3F608020243C4F202019A6040F2057214
:101870000A609A6842F002029A60996801F00C01CD
:101880004FF460520829C4F20202F6D1536C43F4BB
:1018900080435364536E43F480435366704700BFE4
:1018A0004FF40C5310B5C4F2010340F6EC14C2F22D
:1018B0000004012220465A60FFF73AFA4FF4005222
:1018C000C4F20102A26242F61643054AC0F20203C4
:1018D00012206021E2622363BDE81040FEF788BE5B
:1018E000302B0008AFF30080AFF30080AFF300802F
:1018F000C16A0A68136823F0010310B41360136807
:1019000013F00103FBD10C7A826A49683D20A040A4
:101910000860536093600123936010BC704700BF60
:101920004FF40053C4F2010300211A6810B5196086
:10193000910625D5164CE36A1B685B6803B32369DF
:10194000F3B12046FFF7D4FF2369DB683BB10522E2
:1019500001212270204698472378052B14D00022BD
:101960002261202383F31188606930B14FF0FF3387
:101970004362074B5A61FEF77BFF002383F3118814
:10198000BDE81040FEF7DCBD02232370E7E700BF8F
:10199000EC090020AFF30080AFF30080AFF30080CC
:1019A0004FF4C843C4F2000340F20112C0F2010236
:1019B00010B59A60202383F311880A4C2369002B09
:1019C00005DA0948FFF7E4F82369002BF9DB07483B
:1019D0000021FFF70DF9002383F31188BDE81040C3
:1019E000FEF7AEBD200A0020280A0020440A00208D
:1019F00038B54FF4C843C4F20003DC68A20717D01F
:101A00005A6922F002025A61202383F31188154D8E
:101A1000EB69002B05DA1448FFF7BAF8EB69002BE5
:101A2000F9DB12480021FFF7E3F8002383F3118864
:101A3000E30613D54FF4C843C4F20003094810224B
:101A4000DA60C36A1343C362202383F31188002141
:101A50002830FFF7CDF8002383F31188BDE8384024
:101A6000FEF76EBD200A0020340A0020400A002044
:101A700008B5FEF725FDBDE80840FEF761BD00BFD3
:101A80004FF4C843C4F2000310B55C681C22200761
:101A90005A6026D4610720D54FF4C843C4F200032E
:101AA0009A69996921F07001996112F0700F02F042
:101AB000070118BF41F00801202383F311880E4B62
:101AC000DA6A42F001020A4303F12800DA620021D7
:101AD000FFF78EF8002383F31188BDE81040FEF76E
:101AE0002FBD202383F3118804480021FFF780F8DD
:101AF000002383F31188CDE7200A0020540A002038
:101B000010B540F62024C2F200042046FFF728F961
:101B10004FF4C843C4F20003A36310BDAFF30080C9
:101B200038B5174D2B691A8A9C89A4B21440E24338
:101B300092B21A82A3071ED4600717D4210710D4CB
:101B4000E20609D4E30703D56B680D489B68984704
:101B5000BDE83840FEF7F4BC6B6809489B6A9847BB
:101B6000F0E76B6806481B6A9847E9E76B6804482A
:101B70009B699847E2E76B6828461B699847DBE753
:101B80005C0A0020AFF30080AFF30080AFF3008069
:101B900010B540F65C24C2F200042046FFF710F9AD
:101BA0004FF40063C4F20003236110BDAFF3008063
:101BB00038B540F67023C2F2000340F67424C2F236
:101BC00000044FF6FF721A802046FFF709F9094911
:101BD0004FF4605016224623C4F2000001F10C05B8
:101BE000C0F20102C0F20103E06121626562A262FB
:101BF000E36238BDC42A0008AFF30080AFF3008071
:101C00004FF46053C4F202031A6B6FEA52226FEA78
:101C100042221A631A6D6FEA52226FEA42221A6553
:101C200000230168C4F202034FF480621960416826
:101C3000596081689960C168D960016959614169D9
:101C4000196281695962C169C4F202024FF40063EA
:101C50001160016A5160416A9160816AD160C16A14
:101C60005161016B1162416B5162C4F20203826BDC
:101C70001A60C26B5A60026C9A60426CDA60826CC5
:101C80005A61C26C1A62016D4FF440625962416D33
:101C9000C4F202024FF480531160816D5160C16D36
:101CA0009160016ED160416E5161816E1162C16EB1
:101CB0005162C4F20203026F1A60426F5A60826F6F
:101CC0009A60C26FDA60D0F880205A61D0F8842020
:101CD0001A62D0F888104FF4A0525962D0F88C10D4
:101CE000C4F202024FF4C0531160D0F8901051605A
:101CF000D0F894109160D0F89810D160D0F89C1072
:101D00005161D0F8A0101162D0F8A4105162D0F83F
:101D1000A810C4F202034FF4E0521960D0F8AC10DE
:101D20005960D0F8B0109960D0F8B410D960D0F8EC
:101D3000B8105961D0F8BC101962D0F8C010C4F2C4
:101D400002025962D0F8C4301360D0F8C830536032
:101D5000D0F8CC309360D0F8D030D360D0F8D43005
:101D60005361D0F8D8301362D0F8DC104FF4005330
:101D70005162D0F8E020C4F202031A60D0F8E420E7
:101D80005A60D0F8E8209A60D0F8EC20DA60D0F8F9
:101D9000F0205A61D0F8F4201A62D0F8F8205A6284
:101DA000704700BFAFF30080AFF30080AFF3008057
:101DB000016CC36B00222DE9F00110468F684FF0D3
:101DC000804C4FF0FF3618E0585055015C1902F175
:101DD00058014901C4F81009C4F8086953F8018092
:101DE000B8F1000FA8BF585016DB5D190132BA4296
:101DF000C5F8100BC5F8086B15D802F14801490168
:101E00005C58002CE0DA550143F801C05C19D4F8A5
:101E100008198907FBD5D9E743F801C0D4F8081B96
:101E2000C906FBD5E1E74FF00112C3F81C28BDE855
:101E3000F0017047AFF30080AFF30080AFF3008094
:101E4000C36B8A0142F020021A611A699006FCD421
:101E50000C20FEF73DBF00BFAFF30080AFF3008062
:101E6000F8B5C46B04EB41134FF0FF32D3F80869A7
:101E7000C3F80829F30705460F4603D5D4F81038F0
:101E8000DA071ED433061BD50122D4F8343812FAEF
:101E900007F71F4214D0202383F31188AB6CD4F8CA
:101EA0003428286D3B4322EA0707AB64C4F8347832
:101EB00018B1FEF7DDFC00232B65002383F31188A6
:101EC000F8BD0B1DB0F80CE050F8233001228A4019
:101ED0002EEA020282819B689847D3E7AFF3008025
:101EE0002DE9F04F40F62011C2F20001D0F83C80FD
:101EF0008A69AD4985B005462023916183F3118835
:101F000000262B78012B05D0AB6C93B9D8F8143090
:101F1000DA060ED440F62017C2F20007D8F81820CF
:101F2000BB6942F01002C8F8182002202B65FEF7AA
:101F3000AFFC002383F311881C469946D8F814207F
:101F400012F0100224D0E96B0B6A03F4F012B2F520
:101F5000802F35D0B2F5402FF0D103F00F020432BC
:101F6000C3F30A1355F8222003339B08106AE5D007
:101F7000022201F5805EDEF8001012B140F8041B69
:101F8000013A013BF7D1D8F8142012F01002DAD14F
:101F9000AB6C4FF0010B0BFA09FB1BEA030FCDF8FA
:101FA00004B040F083802B6C09F101099B685FFA53
:101FB00089F999454C46C1D9202383F31188A0E7BC
:101FC00003F00F0B0BF1040BC3F30A1A55F82B3077
:101FD0009869036803BB0AF103039B08C768D0F83C
:101FE00004E082680FD00EF1030EC2EB0E029208DD
:101FF00001F5805EDEF8001012B147F8041B013ACB
:10200000013BF7D1C7685744C76055F82B309B692F
:102010009A6852449A6091E701F5805EC768BAF108
:10202000000F2BD05146032907D97A693B699A42A0
:1020300003D3FB6803297B61F7D8DEF80000E9B120
:1020400000227B694FEAC20C20FA0CFC03F801CB9A
:10205000D7F810C07B61634524BFFB687B61013901
:1020600002F101020CBF00230123032A8CBF0023CD
:1020700003F00103002BE4D10029D4D1202383F302
:102080001188BB6838685344B842BB6008D0036805
:102090003B605F60FEF7ECFB46623868B842F6D101
:1020A000FEF79EFC002383F31188AEE7202383F321
:1020B0001188D8F80830A96C23F0010321EA0B013C
:1020C000C8F808301346A96483F3118809F1040A9B
:1020D00055F82AE0DEF8143098685F68874240F2CD
:1020E000D980E96BBEF810C04FEA491B01EB0B0E1B
:1020F0003F1ADEF81809CDF800B0BC4538BF674676
:1021000080B2B7EB800F39D801342403CDF80880B2
:10211000CDF80C90D046A1461A68002A46D1FA1C88
:10212000920801EB090CD96808D0043151F8040C6D
:102130000431013ACCF80000F8D1D968C919D96046
:1021400055F8284063699A685868BA1890429A60AE
:1021500040F29A80009FE96B248A01EB070E871AF0
:10216000DEF81829A74228BF274692B2B7EB820FA4
:10217000D2D9DDF80880DDF80C900022202383F30B
:102180001188D8F8083043F00103C8F808303AB98C
:10219000D8F83438DDF804B04BEA0303C8F8343813
:1021A000002383F31188FEE6702B000801EB090C75
:1021B000DC684FB33946AE4688083DD02569D4F86F
:1021C00018A0CAEB0502D31C13EA220338BF13463A
:1021D0009B10984238BF03464FEA830BCBEB0101BB
:1021E0004BB10AF1040252F8040C0432013BCCF862
:1021F0000000F8D1DA44AA45C4F818A041D3E36836
:10220000A3610029D8D17546202383F31188A368E0
:102210002068DB19A042A36008D0036823605C60DB
:10222000FEF726FB466220688442F6D1FEF7D8FB13
:10223000002383F3118883E70846E9B1256900206C
:102240000246A36913F801BBAB42A36124BFE36854
:10225000A36101394FEAC20A0CBF0023012302F136
:1022600001020BFA0AFA032A8CBF002303F00103D0
:1022700040EA0A00002BE4D1CCF8000000299BD1F1
:10228000C1E70029DBD1BEE7DDF80880DDF80C905E
:10229000012273E7012271E7AFF30080AFF3008002
:1022A000F8B5C46B04EB41134FF0FF32D3F8086B61
:1022B000C3F8082B320705460F4603D5D4F8143867
:1022C0001B0714D4F00703D5D4F81438D90700D469
:1022D000F8BD3B1DE98955F823300122BA4021EAB7
:1022E0000202EA81DB68284639469847F8BD0B1D93
:1022F00050F823305B689847E4E700BFAFF30080F5
:1023000070B53D4EF56B6B69AC691C40E0046C61C7
:102310003CD4A10448BFD5F80838220704D5736817
:10232000DB680BB134489847E30610D5202383F3CC
:102330001188AB69306D23F01003AB6120B1FEF75B
:1023400097FA2D4B00221A65002383F3118860034E
:10235000D5F8185807D5E90737D4AA073BD46B0737
:102360003FD4280743D4210307D5EA0320D4AB0385
:1023700024D4680315D4290303D4BDE87040FEF7C4
:10238000DFB81D480321FFF78BFFF6E73046FEF765
:10239000C7FD73681B68002BBBD0304600219847EF
:1023A000B7E702211448FFF77BFF2903E5D5E8E7EB
:1023B00000211148FFF774FFAB03DAD50E48012165
:1023C000FFF76EFF6803D6D5EBE700210A48FFF759
:1023D00047FDAA07C3D501210748FFF741FD6B0759
:1023E000BFD505480221FFF73BFD2807BBD50248B2
:1023F0000321FFF735FDB6E7A80A0020AFF3008000
:1024000010B540F6A824C2F200042046FEF7F8FCFE
:102410000023E36423654FF0A043E36342F6603397
:10242000C0F60003236410BDAFF30080AFF300805B
:1024300070B50378C46B012B82B0054601D002B0A1
:1024400070BD304B984249D0EB6C0022AA64002B3F
:1024500038D04FF4A2520323C0F22023C4F200026A
:10246000EE6BE260C4F800380023C4F8003E4FF47D
:102470005023A363012333613369DB07FCD40C20B1
:10248000FEF726FC3369002BFCDA0026A6602846FE
:10249000FFF78EFC6B68C4F81068DB68C4F814683A
:1024A000C4F81C6853B143F20803A3614FF0FF3333
:1024B0006361A36843F00103A360C0E74FF4405396
:1024C000A361F3E705F158004FF4987102220E4B17
:1024D0000095FEF7CDFA2865E864BAE74FF460533B
:1024E000C4F2020343205A6B42F080025A635A69D5
:1024F00042F080025A6100225A61E021FEF778F82A
:10250000A2E700BFA80A0020E11E0008AFF3008088
:10251000F8B505460021C46BFFF792FCD5F840C022
:10252000DCF808E000234FF00060FF2103F14807CA
:1025300003F1580604EB43127F0176010133734522
:10254000E051A051C2F80819C2F8081BEED9DCF816
:102550000020EB6B4FF0FF31C4F818184FF0011159
:10256000C4F81C186A64626210221A611E6916F0AF
:102570001006FBD10C20FEF7ABFBD4F80038696CD9
:1025800023F4FE63C4F80038A76947F44027092202
:1025900047F01007A76148F24003C4F81028C4F8B8
:1025A0001428094AC1F2000301F1100041F480111E
:1025B0002A61C4F8106BC4F8003BC4F81069C4F871
:1025C00000396864A162F8BD802B0008AFF3008079
:1025D000C36B90F83A10D3F8002822F4FE6242EA66
:1025E0000112C3F800287047AFF30080AFF30080FA
:1025F0002DE9F0410F1D4FF4004850F82730C46B0F
:102600001A6802F00302022A0D46064608BFC1F20C
:1026100008080CD0032A08BFC1F20C0807D04146B5
:10262000C1F20001C1F20408012A18BF88466A01FC
:10263000A018D9684FF0000EC0F810EB002941D067
:10264000588A05F15801490148EA000060504FF0EE
:10265000010ED4F81C0805F110010EFA01F1014336
:10266000C4F81C18A21899680020C2F810090029A3
:102670003BD01A8A9B8B716C9208012B88BF5A43FE
:1026800005F13F0304EB8303501841EA02427064F2
:1026900029465A603046FFF7D3FB56F827301A8A8E
:1026A00005F1480342EA85525B0142EA0802E25022
:1026B0000122D4F81C3812FA05F51D43C4F81C5841
:1026C000BDE8F08105F15801490105F1100E60588F
:1026D00020F4004060500121D4F81C0801FA0EF1EA
:1026E00020EA0101C4F81C18BCE705F13F0204EB25
:1026F00082024FF48063C0F20023536029463046C3
:10270000FFF79EFB05F148035B01E25822F400420B
:10271000E2500122D4F81C3812FA05F523EA050527
:10272000C4F81C58BDE8F081AFF30080AFF300801F
:102730005831C36B49015B5813F4004004D013F4C3
:10274000001F0CBF02200120704700BFAFF30080C4
:102750004831C36B49015B5813F4004004D013F4B3
:10276000001F0CBF02200120704700BFAFF30080A4
:10277000043150F82130196A10460822FDF788BD4F
:102780000B1D10B450F82330C46B9A695B8A5068F3
:102790000138C01843F0C04204EB4111B0FBF3F321
:1027A00042EAC343C1F8103B10BC7047AFF300804E
:1027B0000B1D10B450F8232053695B686BB1128A6B
:1027C000C06B5C1EA418B4FBF2F200EB411143EAAB
:1027D000C243C1F8103910BC7047C36B03EB411101
:1027E0004FF40023C1F81039F5E700BFAFF30080C4
:1027F0005831C36B49015A5842F080625A507047B1
:1028000001F14803C26B5B01D05840F00440D05046
:102810000120D2F8343810FA01F11943C2F8341803
:10282000704700BFAFF30080AFF30080AFF30080CC
:102830005831C36B49015A5842F400125A5070473C
:102840004831C36B49015A5842F400125A5070473C
:102850005831C36B49015A5822F400125A5070473C
:102860004831C36B49015A5822F400125A5070473C
:10287000FEF7A6BFAFF30080AFF30080AFF3008098
:10288000704700BFAFF30080AFF30080AFF300806C
:1028900000207047AFF30080AFF30080AFF30080FB
:1028A000022915D003290DD0012909D04FF4406326
:1028B000C4F2020300205A6982F480525A617047C0
:1028C00005487047032A05D8044800EBC20070474A
:1028D0000348704703487047502E0008002E000838
:1028E000102D0008202E0008AFF30080AFF3008009
:1028F00010B50446052904D8DFE801F01F0B0C0BC6
:102900000B0B4FF44063C4F202035A6982F4804215
:102910005A6110BD202383F3118801210D4AFEF76F
:102920008FFA204602210C4AFEF78AFA002383F32D
:1029300011880A4B01221A7010BD4FF44063C4F293
:10294000020307495A69002082F4005208705A6154
:1029500010BD00BFB02C0008202D0008590C00202D
:10296000580C0020AFF30080AFF30080AFF300807D
:1029700010B50431234B50F821201B78926904468E
:102980008BB1936883B94023204602211E4AFEF78B
:1029900077FA202383F3118802212046FEF790FA6C
:1029A000002383F3118810BD174B1B78313B032B99
:1029B000E9D8DFE803F01D140B024FF44063C4F2C2
:1029C00002035A6982F400425A61DCE74FF4406323
:1029D000C4F202035A6982F480425A61D3E74FF489
:1029E0004063C4F202035A6982F480525A61CAE712
:1029F0004FF44063C4F202035A6982F400525A61F0
:102A0000C1E700BF580C00205C0D0020AFF3008030
:102A100010B54FF44063C4F202030C4A59691278AE
:102A200081F40051044659617AB10121084A4FF4FA
:102A30008073FEF735FA202383F3118801212046A5
:102A4000FEF756FA002383F3118810BD580C0020BE
:102A50005C0C0020AFF30080AFF30080AFF3008088
:102A600069646C65000000006D61696E0000000023
:102A70000000000000000000000000000000000056
:102A80000000000000000000000000000000000046
:102A90000100000000000000000000000000000035
:102AA000106002400860024000000B0028600240F5
:102AB0000860024006010C004060024008600240CD
:102AC00010020D00586002400860024016030E001C
:102AD000706002400C60024000040F0088600240F9
:102AE0000C60024006051000A06002400C6002402D
:102AF00010061100B86002400C60024016072F005B
:102B00001064024008640240000838002864024053
:102B1000086402400609390040640240086402402B
:102B2000100A3A005864024008640240160B3B0049
:102B3000706402400C640240000C3C008864024057
:102B40000C640240060D4400A06402400C64024084
:102B5000100E4500B86402400C640240160F460097
:102B60008000000080010000030000000000000061
:102B70007573625F6C6C645F70756D70000000004F
:102B800000000000510F0008711200082113000816
:102B900040004000300C0020300C002001000000FC
:102BA000400C0020000000000000000000000000B9
:102BB00000AAA02A00000000FFABFFFF5400014064
:102BC000FFFF00000000565500AA0A008020080000
:102BD00040020000FFFFFFFF15455155FFFF0000B9
:102BE00000000004400000000180200200000000FE
:102BF000FFFFFFFF54154554FFFF00000000006079
:102C0000000606000001005500000000FFFFFFFF66
:102C100055501500FF0F00000000000000000000EC
:102C20004000000000000000FFFFFFFF0000000068
:102C3000FFFF000000000000000000000000000096
:102C400000000000FFFFFFFF00000000FFFF00008A
:102C50000000000000000000000000000000000074
:102C6000FFFFFFFF00000000FFFF0000000000006A
:102C7000000000000000000000000000FFFFFFFF58
:102C800000000000FFFF0000000000000000000046
:102C90000000000000000000FFFFFFFF0000000038
:102CA000FFFF000000000000000000000000000026
:102CB0000200000000000000112A000800000000CF
:102CC00040000000480C002000000000040000004C
:102CD00000000000000000000000000000000000F4
:102CE0002E034F00700065006E0047006100720007
:102CF00061006700650073002000560052004C0020
:102D000020004800690076006500310033000000B3
:102D100020000000302E000800000000000000002D
:102D200002000000000000000000000071290008FF
:102D300000004000000000009C0D00200100000089
:102D40000000000000000000000000000000000083
:102D50000C0336002E0036002E0036000000000066
:102D6000220353007400720069006E0067002000A7
:102D70006E006F007400200066006F0075006E002A
:102D800064000000000000000000000000000000DF
:102D90002403430041004E00200069006E00200023
:102DA00074006800650020004D0069006400640044
:102DB0006C00650000000000000000000000000042
:102DC00004030904000000000000000000000000EF
:102DD000F1280008A1280008912800080000000040
:102DE00012011001FF00004083040FF000020102F5
:102DF00003010000000000000000000000000000CF
:102E000004000000C02D00082E000000E02C000887
:102E100024000000902D00080C000000502D000838
:102E200022000000602D00080000000000000000EB
:102E300009022000010100C0320904000002FF0065
:102E40000000070581024000000705020240000063
:082E500012000000E02D000853
:042E5800A80A0020A4
:04000005080001905E
:00000001FF
